:020000040800F2
:1000000078470020B1010008794900086719000805
:100010007939000805130008559900080000000010
:10002000000000000000000000000000FD5E00086D
:10003000E914000800000000354F0008396C000882
:10004000CB010008CB010008CB010008CB01000860
:10005000CB010008CB01000805150008CB01000802
:10006000CB010008CB010008CB010008CB01000840
:10007000CB010008CB010008CB010008CB01000830
:10008000CB010008CB010008CB010008CB01000820
:10009000CB010008CB010008CB010008CB01000810
:1000A000CB010008CB010008CB010008CB01000800
:1000B000F56C0008CB010008A16E0008CB01000818
:1000C000CB010008CB010008CB010008CB010008E0
:1000D000CB01000875960008CB010008CB01000891
:1000E000C1150008CB010008CB010008CB010008B6
:1000F000CB010008CB010008CB010008CB010008B0
:10010000CB010008CB010008CB010008CB0100089F
:10011000CB010008CB010008AD6E0008CB01000840
:10012000CB010008CB010008CB010008CB0100087F
:10013000CB010008CB010008CB010008CB0100086F
:10014000CB010008CB010008CB010008CB0100085F
:10015000CB010008CB010008CB010008ED96000898
:10016000CB010008CB010008CB010008CB0100083F
:10017000CB010008CB010008CB010008CB0100082F
:10018000CB010008CB010008DFF810D000F0CCFB59
:100190000048004741A70008AFF3008078470020DF
:1001A00030BF72B6704762B6704780F308887047F8
:1001B0000648804706480047FEE7FEE7FEE7FEE701
:1001C000FEE7FEE7FEE7FEE7FEE7FEE78D6C0008D0
:1001D000890100082DE9F05F0546002092469B4604
:1001E00088460646814640241BE02846414647464D
:1001F000224600F062FA53465A46C01A914110D383
:1002000011461846224600F049FA2D1A67EB0108FC
:100210004F4622460120002100F040FA17EB00096A
:100220004E41201EA4F10104DFDC484631462A4637
:100230004346BDE8F09F421C10F8011B0029FBD18A
:10024000801A704710B5002200E0521C835C8C5C61
:10025000A34201D1002BF8D1D8B2E1B2401A10BDAF
:10026000034611F8012B00F8012B002AF9D118469A
:1002700070472DE9FE4F804681EA0300C00F0C460F
:10028000009021F0004123F00045B8EB0200A941A5
:1002900005D24046214690461C460B46024623F0B6
:1002A0000040104347D0270DC7F30A00C3F30A519B
:1002B0000290401A019040286BDAC3F3130040F417
:1002C000801B0098924620B10023D2EB030A63EB17
:1002D0000B0B01985946C0F14002504600F0DEF980
:1002E00006460D4650465946019A00F0F6F910EBC5
:1002F00008006141002487EA115284EAE7731A4337
:1003000040D0009A62B3019A012A4FEA075215DCE5
:10031000001B61EB02014FF0004202EA0752CDE9F7
:100320000042001C41F5801132462B4600F02DFAA8
:1003300003B0BDE8F08F40462146F9E7001B61EBB2
:100340000201001C41F5801300185B412018A2F542
:10035000001747EB030140EAD570B6196D4111E073
:100360006D084FEA360645EAC0754FEA0752001B92
:1003700061EB0201001C41F5801149084FEA300091
:100380000019514132462B4603B0BDE8F04F00F052
:10039000EDB90098012240000023D0EB020263EB8C
:1003A000E073009821464FEAE074B8EB000061EB7F
:1003B0000401E9E783F000435BE781F0004158E77F
:1003C0002DE9FE4F81EA030404F0004421F00041CE
:1003D00000944FF0000B23F0004350EA01045ED07C
:1003E00052EA03045BD0C3F30A54C1F30A552C4408
:1003F000A4F2F3340194A0FB0254C1F3130141F4BD
:100400008011C3F3130343F4801301FB024400FB88
:10041000034E840A970A44EA815447EA8357A4FBAF
:10042000076802958D0A05FB07854FEA932C04FBAC
:100430000C542705029D4FEA065847EA1637B5EBDC
:1004400008056EEB070C870E920E47EA811742EA09
:100450008312A7FB0201B6EB0B0164EB00042B0D2A
:1004600043EA0C335E1844EB1C50DA465146E7FB76
:100470000201C5F313044FEA0B3343EA14534FEA66
:100480000432019C43EA0603A4F10C040294009C8C
:10049000CDE900B400F079F903B0BDE8F08F002099
:1004A0000146F9E72DE9F04D81EA030404F0004B21
:1004B00021F0004514464FF0000A23F0004150EAB5
:1004C000050220D054EA01021DD0C5F30A570246A6
:1004D000C5F31303C1F31300C1F30A5640F48015AA
:1004E00043F48013A7EB0608101BD64608F2FD382C
:1004F00073EB050002D308F1010801E092185B419B
:10050000B8F1000F03DA00200146BDE8F08D0020AD
:100510004FF48011064684460EE0171B73EB050767
:1005200005D3121B63EB050306434CEA010C490893
:100530004FEA300092185B4150EA0107EDD152EAD0
:10054000030012D082EA040083EA0501084305D0C3
:10055000101BAB4106D20122002306E000224FF01F
:10056000004302E06FF0010253101AEB06004CEB5F
:10057000085110EB0A0041EB0B01BDE8F04D00F013
:10058000F5B830B4044696230800214604D0B623BB
:1005900030BC002200F0BCB820460021F8E70EB5C0
:1005A000C10F80EAE0700844CA07002140F23343DB
:1005B0008DE80E000A460B4600F0E7F803B000BDD8
:1005C0000EB540F2334102910021CDE900110A46F7
:1005D0000B4600F0DAF803B000BD70B5C1F30A5263
:1005E00001F000450024C1F3130140F2FF3341F450
:1005F00080119A4201DA002070BD40F233439A42E2
:10060000A2F2334203DC524200F057F800E090407F
:100610002C43F1D0404270BDC1F30A5210B5C1F372
:10062000130140F2FF3341F480119A4201DA0020B5
:1006300010BD40F233439A42A2F2334203DC5242ED
:1006400000F03BF810BD904010BD00F0004230F0CB
:1006500000400AD0C10D01F56071C0F3160042EAF6
:100660000151C208400711437047002001467047FE
:1006700030B50B46014600202022012409E021FA72
:1006800002F59D4205D303FA02F5491B04FA02F56F
:100690002844151EA2F10102F1DC30BD202A04DB42
:1006A000203A00FA02F1002070479140C2F1200385
:1006B00020FA03F3194390407047202A04DB203AC4
:1006C00021FA02F00021704721FA02F3D040C2F172
:1006D00020029140084319467047202A06DBCB17B9
:1006E000203A41FA02F043EAE07306E041FA02F3ED
:1006F000D040C2F1200291400843194670470029BA
:10070000A8BF7047401C490008BF20F00100704797
:1007100010B4B0FA80FC00FA0CF050EA010404BFF7
:1007200010BC704749B1CCF1200421FA04F411FA4D
:100730000CF118BF012121430843A3EB0C01CB1D91
:100740004FEA00614FEA102042BF002010BC704702
:1007500000EBC35010440029A4BF10BC7047401CDC
:10076000490008BF20F0010010BC704710B5141EEE
:1007700073F1000408DA401C41F1000192185B415A
:100780001A4301D120F0010010BD2DE9F04D924631
:100790009B4611B1B1FA81F202E0B0FA80F2203248
:1007A0009046FFF77BFF04460F4640EA0A0041EA05
:1007B0000B0153465A46084313D0114653EA010031
:1007C00019D0C8F140025046FFF777FF05460E46A4
:1007D000504659464246FFF761FF084305D00120C5
:1007E00004E020463946BDE8F08D0020054346EA86
:1007F000E0762C4337430A986305E40AA0EB08002F
:100800000022FD0A44EA47540A3002D5002001467E
:10081000E9E7010510196941DDE908450019694159
:10082000BDE8F04DA2E72DE9F04D00231A461B1A52
:100830008A4103DB00200146BDE8F08DC1F30A5276
:10084000C1F3130141F480154FF0000BD10702D121
:1008500000186D41521E0027044640F2FF11384631
:1008600001EB620A3E468046024600204FF48011AA
:10087000FFF723FFC2197141BB1846EB0100B4EB2F
:10088000030C75EB000C04D3E41A65EB0005174666
:100890000E46241908F101006D4180463428E3DD3D
:1008A000F91946EB0600091BA84103D24FF0FF32AD
:1008B000134601E0002213461BEB070046EB0A51EA
:1008C000BDE8F04DFFF752BFC1F30A52C1F3130167
:1008D00040F2FF3341F480119A4202DA00200146CF
:1008E000704740F233439A42A2F2334202DC524252
:1008F000FFF7E3BEFFF7D2BE30B5041E71F100046E
:1009000004DB4FF00044404264EB0101141E73F11C
:10091000000405DB1C464FF00043524263EB040326
:10092000994208BF904230BD064C074D06E0E06892
:1009300040F0010394E8070098471034AC42F6D326
:10094000FFF726FCD8C60008F8C6000870B58C185A
:1009500010F8015B15F0070301D110F8013B2A11D3
:1009600006D110F8012B03E010F8016B01F8016BC0
:100970005B1EF9D12B0705D40023521E0DD401F8BC
:10098000013BFAE710F8013BCB1A921C03E013F885
:10099000015B01F8015B521EF9D5A142D8D30020BA
:1009A00070BD00001CB50121084605F08FF97C20C0
:1009B000009001208DF8040000208DF8060003202F
:1009C0008DF8050001208DF8070069460A4800F0FF
:1009D0005DFF04200849088308200883102008834D
:1009E000202008834020488300BF00BF00BF00BF15
:1009F00000BF00BF1CBD00000000024070B50446EF
:100A00000D4614480078A04204D113480068A8425B
:100A100000D170BD0F4804700F480560012C06D14D
:100A2000002000F071F8284600F018F810E0022CC1
:100A300006D1002000F012F8284600F065F807E023
:100A4000032C05D1284600F009F8284600F05CF890
:100A500000BFDEE7180000201C00002070B52DED5F
:100A6000068B054600242846FFF799FD41EC1A0B3A
:100A70009FED200B53EC102BFFF7A2FC41EC190B60
:100A80009FED1E0B53EC102BFFF70CFD41EC180BE8
:100A9000FFF7A3FD00F5004086B210201949088336
:100AA000042048830820088300BF16E006FA04F0FB
:100AB00000F40040B0F5004F03D1402011490883F5
:100AC00002E040200F49488320200E49488300BFA0
:100AD00020200C490883601CC4B2102CE6DB1020D7
:100AE000084948830420088308200883BDEC068B4E
:100AF00070BD0000000000000000E04000000000A9
:100B00000000B0400000024070B52DED068B054698
:100B100000242846FFF743FD41EC1A0B9FED200B04
:100B200053EC102BFFF74CFC41EC190B9FED1E0B07
:100B300053EC102BFFF7B6FC41EC180BFFF74DFD03
:100B400000F5004086B2102019490883042008836C
:100B50000820488300BF16E006FA04F000F40040C5
:100B6000B0F5004F03D140201149088302E0402036
:100B70000F49488320200E49488300BF20200C499C
:100B80000883601CC4B2102CE6DB1020084948839F
:100B90000420088308200883BDEC068B70BD00008C
:100BA000000000000000E040000000000000B04035
:100BB0000000024010B500F001FF10BD70B5064600
:100BC0000C46154608E03046721C96B200F007F855
:100BD00004F8010B681E85B2002DF4D170BD70B50C
:100BE0000446002600F09EFFA02000F067FF00F002
:100BF000E5FF201200F062FF00F0E0FF2546E1175C
:100C000004EB11610912A4EB0121C8B200F056FFF8
:100C100000F0D4FF00F086FFA12000F04FFF00F0AD
:100C2000CDFF002000F018FF064600F0A1FF30467F
:100C300070BD70B505460C46164606E0217828467C
:100C400000F009F8681C85B2641C301EA6F1010191
:100C50008EB2F3D170BD70B504460E4600F062FF4F
:100C6000A02000F02BFF00F0A9FF201200F026FFCB
:100C700000F0A4FF2546E11704EB11610912A4EB73
:100C80000121C8B200F01AFF00F098FF304600F0D2
:100C900015FF00F093FF00F06BFF0A2000F026FC28
:100CA00070BD00002DE9F04702460B4600242046A7
:100CB0002146082B7ED19A4CA45C5D01A4FB05560D
:100CC0004FF4807C0027A5FB0C4806FB0C8605FB37
:100CD000076C5E013D46A4FB06780CFB068604FB10
:100CE00005655E014FF0000CA7FB064805FB068575
:100CF00007FB0C564FF4807C00272546A5FB0C48CB
:100D000006FB0C8605FB076667464FF0000C254680
:100D1000A5FB074806FB078605FB0C654FF4807CA6
:100D200000272646A6FB0C4805FB0C8506FB07554D
:100D30007B4F561CBE5DA6FB0CC65F014FF0000941
:100D4000ACFB078A06FB07A60CFB096C3E464F4628
:100D5000B146A8FB096A0CFB09AC08FB07C95F0197
:100D60004FF0000CB0464E46E146A8FB07CA06FB12
:100D700007A608FB09674FF480794FF00008664624
:100D8000A6FB09CA07FB09A706FB0876C8464FF071
:100D90000009ACFB087A06FB08A60CFB0966A44612
:100DA0002C4635461CEB07066C415D4F951C7D5D5E
:100DB0005F0100E08FE0A5FB07574FF48078A5FBAB
:100DC00008CA07FB08A705FB097900256746CC463A
:100DD000A946A7FB085A0CFB08AC07FB09C900276A
:100DE000AC464D46B946ACFB087A05FB08A50CFBA2
:100DF00009590025BC464F46A946ACFB085A07FBDB
:100E000008A70CFB097775197C41454FD61CBE5DC0
:100E1000A6FB08C74FF00009ACFB086A07FB08A750
:100E20000CFB09795F014FF0000CB0464E46E146DD
:100E3000A8FB07CA06FB07A608FB0969B8460026F7
:100E40006746CC46B146A7FB086A0CFB08AC07FB1B
:100E500009C7AD197C41324F161DBE5D5F01A6FB6F
:100E600007864FF0000CB946A8FB097A06FB09A6D5
:100E700008FB0C694FF4807C4FF000083E464F465B
:100E8000E146A6FB09CA07FB09A706FB087615EB96
:100E90000C057441224F561DBE5D5F01A6FB07681D
:100EA000BC464FF00009A6FB0C7A08FB0CAC06FB15
:100EB00009C6ED1974411A4F961DBE5D5F01A6FB70
:100EC0000776EF1944EB0605154ED41D345D38192D
:100ED00045EB090122E0042B10D1114CA45C25063E
:100EE0000F4E541C345D05EB0445941C345D05EB3A
:100EF0000425D41C345D2819C1170FE0022B08D13A
:100F0000074D541C2D5D064CA45C05EB0420C11755
:100F100004E0012B02D1024CA05C0021BDE8F08767
:100F2000210500202DE9F04F89B0804614461D466A
:100F3000DDF84890B9F1080F7ED14FF4807200239C
:100F400020462946FFF746F982464FF48072002377
:100F5000FFF740F94FF480720023CDE90001FFF75D
:100F600039F94FF480720023CDE90201FFF732F91D
:100F70004FF480720023CDE90401FFF72BF90646F8
:100F80004FF480720023FFF725F94FF4807200239D
:100F9000CDE90601FFF71EF9B04901F808004FF44A
:100FA0008072002320462946FFF714F906464FF4C5
:100FB00080720023FFF70EF94FF480720023CDE911
:100FC0000001FFF707F94FF480720023CDE9020119
:100FD000FFF700F94FF480720023CDE90401FFF719
:100FE000F9F882464FF480720023FFF7F3F84FF4CC
:100FF00080720023CDE90601FFF7ECF8D1B2974AE1
:1010000008F1010011544FF4807200232046294654
:10101000FFF7E0F882464FF480720023FFF7DAF81A
:1010200006464FF480720023FFF7D4F84FF4807225
:101030000023CDE9020100E090E0FFF7CBF84FF488
:1010400080720023CDE90401FFF7C4F84FF48072E9
:101050000023CDE90601FFF7BDF8D1B27F4A08F1C0
:10106000020011544FF48072002320462946FFF7F6
:10107000B1F84FF480720023CDE90401FFF7AAF81C
:101080004FF480720023CDE90601FFF7A3F806466E
:101090004FF480720023FFF79DF882464FF4807270
:1010A0000023FFF797F8D1B26C4A08F103001154FE
:1010B0004FF48072002320462946FFF78BF84FF447
:1010C00080720023CDE90601FFF784F806464FF44D
:1010D00080720023FFF77EF882464FF4807200236F
:1010E000FFF778F8D1B25D4A08F1040011544FF4CB
:1010F0008072002320462946FFF76CF806464FF41D
:1011000080720023FFF766F882464FF48072002356
:10111000FFF760F8D1B2514A08F1050011544FF4BD
:101120008072002320462946FFF754F806464FF404
:1011300080720023FFF74EF8D1B2484A08F106004A
:1011400011544FF48072002320462946FFF742F8DD
:10115000D1B2424A08F1070011547CE0B9F1040F02
:101160004CD14FF48072002320462946FFF732F815
:1011700006464FF480720023FFF72CF882464FF4A6
:1011800080720023FFF726F8344901F808004FF475
:101190008072002320462946FFF71CF882464FF450
:1011A00080720023FFF716F806464FF48072002382
:1011B000FFF710F8D1B2294A08F1010011544FF499
:1011C0008072002320462946FFF704F806464FF4B4
:1011D00080720023FEF7FEFFD1B2204A08F1020020
:1011E00011544FF48072002320462946FEF7F2FF87
:1011F000D1B21A4A08F1030011542CE0B9F1020FE0
:101200001CD14FF48072002320462946FEF7E2FFEE
:1012100006464FF480720023FEF7DCFF0F4901F809
:1012200008204FF48072002320462946FEF7D2FFA3
:10123000D1B20A4A08F1010011540CE0B9F1010FD2
:1012400009D14FF48072002320462946FEF7C2FFE1
:10125000024901F8082009B0BDE8F08F21050020FF
:101260001CB50121084604F031FD0121402004F0A5
:101270002DFD0220009001208DF8040000208DF843
:10128000060003208DF8050001208DF8070069464F
:10129000054800F0FBFA4FF400400090694603480F
:1012A00000F0F4FA1CBD00000000024000180240EB
:1012B0001CB509F043F90121042004F007FD3F208B
:1012C000009000208DF8040001208DF80700694689
:1012D0000B4800F0DBFA4FF47C60009001208DF8A1
:1012E000040000208DF8060003208DF80500012081
:1012F0008DF807006946024800F0C8FA1CBD0000DE
:101300000008024000BFFEE700B585B001210220C1
:1013100004F0DCFC0121880304F008FD4FF4604078
:10132000039000208DF8100001208DF8130003A910
:10133000234800F0ABFA0D21012004F0E1FD0F215C
:10134000012004F0DDFD4FF40050009000208DF8E6
:10135000040010208DF8050001208DF80600684675
:1013600000F09EF928208DF8080003208DF8090070
:101370008DF80A0001208DF80B0002A803F0FEFA98
:101380004FF40040009000208DF8040010208DF8EC
:10139000050001208DF80600684600F081F928203C
:1013A0008DF8080003208DF809008DF80A0001204F
:1013B0008DF80B0002A803F0E1FA05B000BD0000B3
:1013C00000040240704700003EB505460C4601216E
:1013D000042004F09BFC0121022004F077FC4FF470
:1013E0008070019002208DF8080000208DF80A001E
:1013F00003208DF8090001208DF80B0001A9214878
:1014000000F044FA022208211E4800F087FA1E4824
:101410000560001F04801C481038008840F0600000
:101420001949103908800846008840F008000880F3
:10143000081D008840F48070091D08808020124932
:101440002C39088010482038008820F001000E490F
:10145000203908800C482C38008820F001000A4907
:101460002C3908801E208DF8000001208DF8010025
:1014700003208DF8020001208DF80300684603F078
:101480007DFA3EBD000402402C08004070477047C2
:10149000704770477047704770B504460025082CA8
:1014A00011D100BF0CE00E4850F82520292127203B
:1014B000904700200B4951F825100860681CC5B200
:1014C000082DF0DB0AE0064850F8242029212720C7
:1014D00090470020034951F82410086070BD0000B7
:1014E000A4020020240200207047000001B5044936
:1014F0000098086000BF024800680028FBD108BDC2
:101500000C00002008B529488078032847D12848D6
:10151000006801280BD1002024490090487800225F
:10152000134603F085FA01212248817037E02048F4
:101530000068A0BB1D484078012806D11B48D0F8A0
:1015400088001D494968086008E01848407828B9B3
:101550001648D0F8300118494968086016484068B4
:10156000006838B113488078012803D10021114860
:10157000817009E010484068006828B90D488078FB
:1015800010B901210B488170012000900A48406881
:101590000168064A50780A46002303F049FA0748D2
:1015A000006840F001000549086008BD28000020DF
:1015B00000824042CC02002010030020143C014075
:1015C00008B52F48006800F4005080B3642009F08B
:1015D00005F82C4800682C49D1F8381288420DD003
:1015E0002A480078401C294908702948007890B1A1
:1015F00027480078401E264908700CE024480078EF
:10160000401C234908702148007820B11F48007809
:10161000401E1E4908701F48408910B901201D490D
:1016200048811748006840F4005015490860144884
:10163000006800F4004008B3124808300068012830
:101640000AD10090144840680168144A50780A464C
:10165000002303F0EDF90BE00A480830006838B9C0
:1016600000200E49009048780022134603F0E0F96C
:101670000348006840F400400149086008BD0000CC
:10168000143C01403482404200804042200000204F
:101690002100002068030020100300202800002003
:1016A000002123498279002A3AD00A461268036849
:1016B0009A430B461A600A1D126803689A430B1D71
:1016C0001A60027911440A6803681A430A60184ACA
:1016D0000832126803689A43154B08331A601A1DC2
:1016E000126803689A43124B0C331A604279102A2D
:1016F0000ED11A1F126803681A430D4B08331A6083
:101700001A1D126803681A43094B0C331A600DE066
:101710000749427911440A6803681A430A6005E0E0
:10172000027911440A6803689A430A60704700000E
:10173000003C014051B18200A2F1C042126842F067
:1017400001038200A2F1C042136009E08200A2F10D
:10175000C0421268034B1A408300A3F1C0431A60D1
:1017600070470000FEFF0F0030B50021002200236B
:101770000468A400A4F1C0442168424C2140D0E98F
:1017800001452C43C5682C4305692C4345692C430E
:1017900085692C43C5692C43056A2C43456A2C4353
:1017A000856A2C43C56A2C43056B2C43214304688E
:1017B000A400A4F1C04421608468082C0BD1046803
:1017C000A400A4F1C044246844F040050468A400C7
:1017D000A4F1C04425600468641CA400A4F1C044C2
:1017E000226802F04042446B2468456B6D6844EA0D
:1017F0000514456BAD6844EA0524456BAD8944EAA0
:101800000544456B2D8A44EA0554456B2D7D44EA19
:101810000564456BAD692C4322430468641CA40035
:10182000A4F1C0442260C46AB4F5804F20D104689A
:10183000A400A4F1C044D4F80431134C2340846BB9
:101840002468856B6D6844EA0514856BAD6844EACD
:101850000524856BAD8944EA0544856BAD692C434D
:1018600023430468A400A4F1C044C4F8043107E091
:101870006FF070450468A400A4F1C044C4F804519A
:1018800030BD00008000F7FF0000F0CFF0B50A4641
:1018900000210023002400BF3DE0012505FA01F3EB
:1018A000156805EA03049C4234D105684F000326FD
:1018B000BE40B543056015794E00B5400668354316
:1018C00005601579012D02D01579022D16D1856894
:1018D0004F000326BE40B543856055794E00B540A4
:1018E000866835438560456801268E40B54345606E
:1018F000456896798E40B6B235434560C5684F005D
:101900000326BE40B543C560D5794E00B540C668D4
:101910003543C560491C1029BFD3F0BDF0B5002385
:1019200000244D07ED0E02FA05F3CE1000F120055C
:1019300055F826504E07F70E0F26BE40B543CF1080
:1019400000F1200646F82750CE1000F1200555F88A
:10195000265045EA0304CE1000F1200545F8264044
:10196000F0BD0183704700BFFEE7000010B5002006
:101970000F4908600F48006820F440000D490860D6
:101980000846006840F48000086000200A49C1F859
:10199000AC02042008F022FE012005490860042062
:1019A00008F01CFE00200449C1F8A80210BD000088
:1019B000A882404200040240008040421CB5012140
:1019C000022004F083F94FF44060009001208DF86C
:1019D000040000208DF8060002208DF8050001208B
:1019E0008DF8070069460548FFF750FF01200449BC
:1019F00008600449C1F8A8021CBD000000040240B0
:101A0000AC8240420080404210B500200F4908607F
:101A10000F48006820F440000D490860084600683F
:101A200040F48000086001200A49C1F8AC0204209B
:101A300008F0D4FD012005490860042008F0CEFD1F
:101A400000200449C1F8A80210BD0000A88240424D
:101A5000000402400080404270B50546002414484E
:101A6000006820F4400012490860002616E00020BB
:101A700010490860042008F0B1FD01200E49C1F8AA
:101A8000A8026006040E0B487C38006808B1601C90
:101A9000C4B2022008F0A2FD701CC6B2082EE6DB1C
:101AA00015B9FFF7B1FF01E0FFF760FF204670BDF9
:101AB00000040240A88240420080404270B50446C3
:101AC0001548006820F44000134908600846006883
:101AD00040F480000860002010490860002517E0ED
:101AE000E0090E49091D08606006040E042008F094
:101AF00075FD01200A49C1F8A802042008F06EFD16
:101B0000002006490860042008F068FD681CC5B282
:101B1000082DE5DB70BD000000040240A8824042B1
:101B20000080404210B50F48006820F440000D4985
:101B300008600846006840F48000086001200A49F7
:101B400008600A49C1F8A802082008F047FD0020F3
:101B500005490860082008F041FD00200349C1F84C
:101B6000A80210BD00040240AC8240420080404206
:101B700010B50F48006820F440000D490860084681
:101B8000006840F48000086000200A4908600A49A3
:101B9000C1F8AC02082008F021FD012005490860C9
:101BA000082008F01BFD01200349C1F8AC0210BD5C
:101BB00000040240A88240420080404210B5002448
:101BC0001248006820F440001049086001201049C4
:101BD0000860022008F002FD01200E49C1F8A802A9
:101BE000022008F0FBFC07E0601CC4B2FA2C03DD05
:101BF000FFF7BEFF012010BD0548803800680028AF
:101C0000F2D10349091F086000BFF4E70004024055
:101C1000AC824042008040421CB50121084604F0DD
:101C200055F80121102004F051F80121202004F082
:101C30004DF80121402004F049F840200090012097
:101C40008DF8040000208DF8060003208DF80500B3
:101C500001208DF8070069461348FFF717FE402062
:101C6000009001208DF8040000208DF8060003206C
:101C70008DF8050001208DF8070069460B48FFF735
:101C800005FE0820009069460948FFF7FFFD4FF464
:101C90000C40009069460748FFF7F8FD0C21024808
:101CA000FFF75FFE1CBD0000000002400010024074
:101CB00000140240001802402DE9FC4100BF002042
:101CC0000090019000BF00BF00BF00BF4FF4A060B4
:101CD00002F090FE00F0DEF9FFF79EFF4FF4E130D6
:101CE00007F03AFE58A007F0E1FE584807F0DEFE84
:101CF00057A007F0DBFE08F093FC4FF4E13158A049
:101D000007F0D4FE6420FFF7F1FB08205F4908804C
:101D10005FA007F0CBFE65A007F0C8FE4FF49670F9
:101D2000FFF7E4FB01F0DCF86BA007F0BFFEFFF764
:101D300097FA6DA007F0BAFEFFF740FE6EA007F01D
:101D4000B5FEFFF7B5FA70A007F0B0FEFEF72AFE69
:101D50004FF4C8710320FEF751FE6FA007F0A6FEF6
:101D6000FFF7D2FA77A007F0A1FE05F059FB7AA0A1
:101D700007F09CFEFEF71EFF7DA007F097FE0120F6
:101D8000FFF78AFB4FF4165007F084FD4FF416510D
:101D90007CA007F08BFE002002F0CCFD04F024FFB5
:101DA00001208149086000F0F5FA80A007F07EFE6E
:101DB0004FF41670FFF79AFB00F0ECFB7F48818828
:101DC0007FA007F073FE4FF4C870FFF78FFB01F0A0
:101DD000D5FD06F0CAFD632453252946204605F0AB
:101DE0008EFA7EA007F062FE2A46214680A007F008
:101DF0005DFE601C542110FB01F1681C91FBF0F8A2
:101E0000414681A007F052FE40F2E736532739469B
:101E1000304605F0A1FA83A007F048FE3A46314665
:101E200085A007F043FE701C542110FB01F1781CC3
:101E300091FBF0F8414686A007F038FE8BA007F032
:101E400035FEBDE8FC8100000D0A000094C60008C4
:101E50004D4355205374617274210D0A0000000037
:101E600044656267755F5561727420696E6974209C
:101E70004F4B21206261756420726174653D256459
:101E8000206269742F730D0A0D0A000018140240B5
:101E9000416E676C6F6720706F7765722068617341
:101EA000206F70656E210D0A000000005761697493
:101EB00020666F7220616E616C6F6720706F77654E
:101EC0007220746F2073746162696C697A652E2E5A
:101ED0002E2E2E2E210D0A004C45445F496E69744A
:101EE000204F4B210D0A0000426565705F496E6905
:101EF00074204F4B210D0A004949435F496E6974B4
:101F0000204F4B210D0A000042746E5F496E6974C8
:101F1000204F4B210D0A00004144353534325F49D2
:101F20006E6974204F4B2C53657420414435353411
:101F300032204F757470757420746F207A65726FDB
:101F4000210D0A00436F6465635F496E6974204F19
:101F50004B210D0A000000005472696767657245E5
:101F6000785F496E6974204F4B210D0A0000000014
:101F7000415432344358585F496E6974204F4B21A5
:101F80000D0A000055617274315F496E6974204F0B
:101F90004B21206261756420726174653D25642067
:101FA0006269742F730D0A00A08240425265736506
:101FB00074204C4344210D0A00000000A041002081
:101FC0004C4344204F4B21204C43444445565F49E9
:101FD000443D307825780D0A00000000496E697490
:101FE0002054696D657232204F4B210D0A000000AC
:101FF00054696D657232204152523D25642C505314
:10200000433D25640D0A000054696D657232204F0E
:10201000766572666C6F775F74696D653D25647572
:10202000730D0A00496E69742054696D657236201B
:102030004F4B210D0A00000054696D657236204136
:1020400052523D25642C5053433D25640D0A000037
:1020500054696D657236204F766572666C6F775F76
:1020600074696D653D256475730D0A00486172647D
:102070007761726520696E6974204F4B2120537916
:10208000732072756E6E696E672E2E2E2E2E2E0D9B
:102090000A0D0A0010B5104800684FF47A71B0FBC1
:1020A000F1F4601EB0F1807F00D30FE0601E4FF0AE
:1020B000E02148610F214FF0FF3002F0A5FC002025
:1020C0004FF0E02188610720086100BF0021481E11
:1020D00002F09AFC10BD00005003002001460629C2
:1020E00035DA0020A94A10600120A94AC2F89C02F2
:1020F000A64A08321060121D1060121D1060A44A1A
:10210000C2F8AC02A1489838006808B900207047AE
:102110009E489438006808B90120F8E79B48903839
:10212000006808B90220F2E798488C38006808B9BE
:102130000320ECE795488838006808B90420E6E7F2
:10214000924884380068002873D10520DFE70C2905
:1021500036DA01208D4A106000208D4AC2F89C02B8
:1021600001208A4A08321060121D1060121D106092
:10217000874AC2F8AC0285489838006808B906203A
:10218000C5E782489438006808B90720BFE77F4850
:102190009038006808B90820B9E77C488C38006896
:1021A00008B90920B3E779488838006808B90A20D7
:1021B000ADE77648843800680028C5D10B20A6E733
:1021C000122937DA0120714A1060714AC2F89C0264
:1021D00000206E4A083210600120121D1060121D8E
:1021E00010606B4AC2F8AC0268489838006808B9B9
:1021F0000C208CE765489438006808B90D2086E704
:1022000062489038006808B90E2080E75F488C3833
:10221000006808B90F207AE75C488838006808B978
:10222000102074E759488438006800288CD11120A8
:102230006DE7A1E0182936DA0120544A1060544AAB
:10224000C2F89C02514A083210600020121D106032
:102250000120121D10604E4AC2F8AC024B4898385B
:10226000006808B9122052E748489438006808B955
:1022700013204CE745489038006808B9142046E719
:1022800042488C38006808B9152040E73F48883834
:10229000006808B916203AE73C48843800680028EE
:1022A00071D1172033E71E2935DA0120374A106033
:1022B000374AC2F89C02354A08321060121D10607D
:1022C0000020121D10600120314AC2F8AC022F48D4
:1022D0009838006808B9182019E72C489438006825
:1022E00008B9192013E729489038006808B91A205E
:1022F0000DE726488C38006808B91B2007E72348FB
:102300008838006808B91C2001E720488438006834
:1023100090BB1D20FBE6242935DA01201B4A106002
:102320001B4AC2F89C02194A08321060121D106044
:10233000121D10600020164AC2F8AC0213489838EB
:10234000006808B91E20E2E610489438006808B911
:102350001F20DCE60D489038006808B92020D6E63A
:102360000A488C38006808B92120D0E60748883828
:10237000006810B92220CAE605E0044884380068E5
:1023800008B92320C3E6FF20C1E6000098024142BD
:10239000000041421CB50121102003F097FC2020D1
:1023A000009001208DF8040000208DF80600032025
:1023B0008DF8050001208DF8070069460648FFF7F3
:1023C00065FA202004494883C820FFF78FF82020B1
:1023D000014908831CBD00000010024070B504468E
:1023E000002617480588408845431548808846F6EA
:1023F0000401884216D112488079012812D10020A8
:102400000F4988712A2048812B20888100210846A5
:1024100000F030FC01200A4988712B2048812A20D5
:10242000888103E00021084600F024FC00F046FD0E
:10243000002602E003480480761CAE42FAD370BD49
:10244000A04100200000026010B50446DCB9002065
:102450001C498871F02008804FF4A070488008461D
:10246000808841F66311884228D12C2015490881C3
:102470002B2048812A2088814FF4F07008804FF487
:10248000487048801AE001200E4988714FF4A0700E
:102490000880F02048800846808841F66311884211
:1024A0000CD12C20074908812A2048812B208881C3
:1024B0004FF4F07008804FF488704880002000F0DE
:1024C00063FA10BDA041002010B503460C461A481F
:1024D000808841F66311884227D11748807920B956
:1024E00015480088401EC01A83B21349488900F07D
:1024F000DFFC181200F0D6FCD8B200F0D3FC1812A2
:1025000000F0D0FCD8B200F0CDFC0B49888900F077
:10251000CFFC201200F0C6FCE0B200F0C3FC201299
:1025200000F0C0FCE0B200F0BDFC034800890349A4
:102530000880881C028010BDA0410020FEFF0160C1
:102540002DE9F04F05460E4617469846DDF824A0C3
:102550004FF0000B781B401C1FFA80FB344613E041
:102560002146284600F086FB00F0A8FC4FF0000949
:1025700006E00748A0F800A009F101001FFA80F961
:10258000D945F6DB601C84B24445E9DDBDE8F08F37
:1025900000000260F0B59FB000240025002600274F
:1025A0000121182003F092FB0121084603F09EFB55
:1025B0004CF6B3701D9002208DF8780000208DF845
:1025C0007A0003208DF8790001208DF87B001DA989
:1025D000C748FFF75BF94FF680701D9002208DF819
:1025E000780000208DF87A0003208DF87900012012
:1025F0008DF87B001DA9BF48FFF748F90C22002188
:10260000BB48FFF78BF90C220121B948FFF786F987
:102610000C220421B648FFF781F90C220521B448A9
:10262000FFF77CF90C220821B148FFF777F90C225B
:102630000921AF48FFF772F90C220A21AC48FFF7D5
:102640006DF90C220E21AA48FFF768F90C220F2120
:10265000A748FFF763F90C220721A648FFF75EF9A8
:102660000C220821A348FFF759F90C220921A1489F
:10267000FFF754F90C220A219E48FFF74FF90C226C
:102680000B219C48FFF74AF90C2211469948FFF7A5
:1026900045F90C220D219748FFF740F90C220E2135
:1026A0009448FFF73BF90C220F219248FFF736F9C7
:1026B0000C2207218E48FFF731F90C220B218C48A0
:1026C000FFF72CF908200790002008900F200990B0
:1026D00000200A9001200B9000200C900D90082003
:1026E00000900020019009200290002003900490A7
:1026F000059006900E900F901090102011900020E1
:10270000129014901390159016904FF480501790DB
:10271000002018904FF48040199000201A9007A8CC
:102720001B90CDF870D00EA8FFF71EF801210020F5
:10273000FFF700F84FF44870FEF7D8FE002000F0D5
:10274000E7F86D4988800A20FEF7D0FE41F6631055
:10275000694988800846808841F6631188427DD1A6
:10276000E22000F0A5FB1D2000F09CFB022000F001
:1027700099FB042000F096FB642007F02FFFE02077
:1027800000F096FB012000F08DFB0A20FEF7AEFE64
:10279000E02000F08DFB032000F084FB0C20FEF70E
:1027A000A5FE012000F084FB0A20FEF79FFE4FF4F7
:1027B0004870FEF79BFEE62000F07AFB2F2000F029
:1027C00071FBFF2000F06EFBFF2000F06BFBB020E0
:1027D00000F06EFB102000F065FB002000F062FBB3
:1027E000012000F05FFB40F2DF1000F05BFB0120F6
:1027F00000F058FB40F20F1000F054FB002000F0F6
:1028000051FBB42000F054FB022000F04BFB40F2DF
:10281000DF2000F047FB002000F044FB2E2000F0FA
:1028200041FB002000F03EFB002000F03BFB0020BD
:1028300000F038FB002000F035FBB62000F038FB3C
:10284000012000F02FFB4FF49E7000F02BFB0020C6
:1028500000F028FB172000F025FB00E03EE01520EB
:1028600000F020FB002000F01DFB002000F01AFB10
:10287000F02000F01DFB032000F014FB292000F0E5
:1028800017FBD02000F014FB002000F00BFBBE2053
:1028900000F00EFB052000F005FBFE2000F002FB1F
:1028A000012000F0FFFA002000F0FCFA002000F008
:1028B000F9FA002000F0F6FAB82000F0F9FA032047
:1028C00000F0F0FA012000F0EDFABA2000F0F0FA82
:1028D000012000F0E7FA002000F026F80120FFF7C1
:1028E000B3FD42F20410FFF779FD1FB0F0BD000008
:1028F000000C024000100240A041002008B503482F
:1029000000880090BDF8000008BD000000000260D3
:1029100010B50446204600F0CBFA052007F05EFE15
:10292000FFF7ECFF10BD000070B52DED048B0446E1
:10293000BE2000F0BDFA052000F0B4FA2046FDF7F5
:102940003FFE41EC190B9FED0E0B53EC102BFDF7E6
:1029500037FD41EC180BFDF75FFE85B2284600F00D
:10296000A1FA012000F09EFAFF2000F09BFA00205F
:1029700000F098FA002000F095FABDEC048B70BDD1
:10298000666666666666044070B5044600230026E7
:10299000B748807901280BD1B548808846F60401F4
:1029A000884205D0B248808841F66311884208D138
:1029B000AF488079F0B9AE48808841F6631188420B
:1029C00018D1082C15D2DFE804F00406080A0C0E12
:1029D000101206240DE007240BE0042409E005246E
:1029E00007E0012405E0002403E0032401E00224C1
:1029F00000BF00BF9E48808849F24131884217D00D
:102A00009B48808846F60401884211D09848808807
:102A100045F2103188420BD09548808845F210511C
:102A2000884205D09248808841F6631188427DD162
:102A3000082C1CD2DFE804F00406090C0F1215184C
:102A400000BF14E043F0800311E043F040030EE0C8
:102A500043F0C0030BE043F0200308E043F06003C1
:102A600005E043F0A00302E043F0E00300BF00BF35
:102A70007F48808845F21051884202D14FF4585661
:102A800000E036267A48808845F2103188420DD021
:102A90007748808845F21051884207D07448808872
:102AA00041F66311884201D043F0080370488088E2
:102AB00046F60401884201D143F00203194630462C
:102AC00000F006FA6A48808841F6631188421DD0FA
:102AD00003F0200068B1664800886549498888424B
:102AE00014DA6348058840886149088008464580B3
:102AF0000CE05F4800885E494988884206DD5C48F2
:102B0000058840885A49088008464580584880888A
:102B100045F21051884254D15549488900F0C8F90E
:102B2000002000F0BFF95249498900E078E0491CD3
:102B300088B200F0BDF9002000F0B4F94C49498991
:102B4000891C88B200F0B4F949490988491EC1F3CB
:102B50000F2000F0A7F946494989C91C88B200F046
:102B6000A7F943490978491EC8B200F09BF94049CA
:102B7000888900F09DF9002000F094F93C4989898A
:102B8000491C88B200F094F9002000F08BF9384914
:102B90008989891C88B200F08BF935494988491E1A
:102BA000C1F30F2000F07EF931498989C91C88B230
:102BB00000F07EF92E498978491EC8B200F072F9FA
:102BC00055E02B49488900F073F9002000F06AF9BC
:102BD000002000F067F926490988491EC1F30F203B
:102BE00000F060F922490978491EC8B200F05AF98C
:102BF0001F49888900F05CF9002000F053F900209B
:102C000000F050F91A494988491EC1F30F2000F01D
:102C100049F917498978491EC8B200F043F926E0FE
:102C2000082C1CD2DFE804F004070A0D0F12151857
:102C300043F0300313E043F0100310E043F02003AF
:102C40000DE000BF0BE043F0380308E043F0280339
:102C500005E043F0180302E043F0080300BF00BFA3
:102C6000032643F480531946304600F031F970BD15
:102C7000A041002000B502460B462748808841F657
:102C80006311884246D124488079A8B92248008837
:102C9000401E801A82B22049488900F009F91012BA
:102CA00000F000F9D0B200F0FDF8101200F0FAF8D0
:102CB000D0B200F0F7F816E01749488900F0F8F8AC
:102CC000101200F0EFF8D0B200F0ECF812490988C9
:102CD000491EC1F30F2000F0E5F80F490978491E9D
:102CE000C8B200F0DFF80C49888900F0E1F818124A
:102CF00000F0D8F8D8B200F0D5F807494988491E45
:102D0000C1F30F2000F0CEF803498978491EC8B2FC
:102D100000F0C8F800BD0000A04100202DE9F84FE8
:102D200080460E4617461C46B3462046E31704EB82
:102D30005373DB1021464FEAE47C04EB5C7C4FEAE2
:102D4000EC0CA4EBCC0CBCF1000F02D04FF0010C4A
:102D500001E04FF0000C6344224604EBD27C4FEAC2
:102D60006C0C03FB0CF3DBB20093A7F12000C7B29D
:102D7000002554E00C2C07D107EB47002A4901EB52
:102D8000800010F8059013E0102C05D1274800EBC7
:102D9000071010F805900BE0182C07D107EBC700BF
:102DA000234901EB800010F8059001E0BDE8F88FA1
:102DB0004FF0000A2DE009F0800028B1314640466E
:102DC0000C9AFFF781FB06E00A9820B9314640468D
:102DD0000B9AFFF779FB4FEA49604FEA1069701CC4
:102DE00086B214484088B04200DCDFE7A6EB0B0057
:102DF000A0420AD15E4608F101001FFA80F80D4892
:102E00000088404500DCD1E706E00AF1010000F04F
:102E1000FF0ABAF1080FCEDB00BF681CC5B20098EC
:102E20008542A7DB00BFC1E7D4AE000848B3000865
:102E300038B90008A04100202DE9FF5F04460D4687
:102E4000904699460EAE96E8C00CE0B2039008EBAF
:102E500004001FFA80F809EB05001FFA80F917E05B
:102E6000444502DB039CA81985B24D4500DB15E003
:102E700000208DE8010C3A78334629462046FFF7BA
:102E80004DFF304606EBD07104EB61018CB27F1C24
:102E900038787E2802DC38782028E1DA00BFBDE8E7
:102EA000FF9F000001490880704700000000026099
:102EB0000149088070470000FEFF01600248008958
:102EC0000249088070470000A0410020FEFF016019
:102ED000024A1080921C118070470000FEFF0160C2
:102EE0001CB50121084602F0F1FE0121022002F08A
:102EF000EDFE0121082002F0E9FE0121102002F080
:102F0000E5FE41F60110009001208DF8040000203C
:102F10008DF8060003208DF8050001208DF80700CC
:102F200069461748FEF7B2FC4FF4307000906946CE
:102F30001448FEF7ABFC43F24C000090694612487F
:102F4000FEF7A4FC1F20009069461048FEF79EFC87
:102F500041F601110A48FEF704FD4FF430710948AB
:102F6000FEF7FFFC43F24C010748FEF7FAFC1F2175
:102F70000648FEF7F6FC0020054908601CBD00006D
:102F80000000024000040240000C02400010024019
:102F9000988240420020064908600649C1F8B00204
:102FA00003490C3108600449C1F8A40270470000CD
:102FB000A0024042000040420080404200200649FA
:102FC00008600649C1F88C020349103108600349C2
:102FD000C1F8B0027047000088824142008041423F
:102FE00024480078022809D10120234908604FF4C1
:102FF000FA7020494880012008700BE01D480078D5
:10300000012807D11B48408820B900201A490860D0
:103010001849087017480079022806D14FF4FA7051
:103020001449C8800120087109E01248007901287C
:1030300005D11048C08810B900200E4908710D480C
:10304000007A022809D101200C4908604FF4FA7077
:1030500008494881012008720BE00648007A0128DF
:1030600007D10448408920B900200449086001497B
:1030700008727047780300208C024242B4824142B9
:10308000F8B500250024002607F038FA0546002D83
:1030900062D0681E032190FBF1F0C4B2681E90FB61
:1030A000F1F201FB1200C6B2002E55D1242C53DAE6
:1030B0000B2C65D1F948807890B9F948007800F078
:1030C000020028B1F648007820F00200F4490870A8
:1030D000F3488078012802D0012002F027F9F8BDDA
:1030E000EE488078032812D1ED488078012807D077
:1030F0000020EA49009048780022134601F098FC2D
:103100000020E84908600121E5488170E7E7FF20D9
:10311000E249C87001F034FDFFF750FFE0488078C5
:1031200001281AD1E048008918B149F64040DE492B
:103130000881012006F04AF90220D84981F873017C
:10314000DAA006F0B3FC0120DD4908600F20FEF78D
:10315000CDF9012002F024F82DE2D1488078012831
:10316000FAD00020CD49009048780022134601F0A3
:103170005FFC0020CB490860012002F0D7F8F6E39D
:103180000A2C30D1FF20C549C87001F0F9FCFFF7C7
:1031900015FFC3488078A0B9CA48006820F0010034
:1031A000C84908600020BD490090487800221346B5
:1031B00001F03EFC012001F041FF0120B949086007
:1031C000D5E3B748807802280CD1BE48006840F0AB
:1031D0000100BC490860012001F0AEFE0020B149A9
:1031E0000860C4E3C3E3092C1FD1AC480078012870
:1031F00008D10220A94908700120B3490870B349D9
:10320000087007E00120A54908700020AE49087049
:10321000AE490870FF20A149C87001F0B1FCFFF76A
:10322000CDFE0120A0490881A1E3182C21D1FF2067
:103230009A49C87001F0A4FCFFF7C0FE9748807857
:10324000002889D1012006F0C1F80220934981F8B5
:10325000730196A006F02AFC0120994908600F200E
:10326000FEF744F9012001F09BFF02209849087005
:103270007DE3042C71D18A48007800F0020028B167
:103280008748007820F002008549087084488078DB
:10329000012802D0012002F049F88048407808B99E
:1032A000012000E000207D49487002208849087113
:1032B000FF207A49C870FFF76DFEFFF77FFE002000
:1032C000764981F870010021744880F872114078C5
:1032D000012845D17F48407820F001007D494870A1
:1032E0000846407840F0010048706C4890F8A8000B
:1032F0006A4988710846807988700846807830B1BC
:1033000001280DD0022815D0032827D11CE06348DE
:10331000007A6249487101206949091D08601EE070
:103320005E4890F830005D494871012064491431CD
:10333000086014E0594890F8580058494871012035
:103340005F49103108600AE0544890F88000534902
:10335000487101206049086001E059E000BF43E086
:103360005C48407820F001005A49487000204870BD
:103370004A488079494981F8A800084690F8A80091
:1033800088700846807830B101280ED0022816D007
:10339000032827D11DE0414890F8B0003F4948710B
:1033A00001204749091D08601DE03C4890F8D800FD
:1033B0003A494871012042491431086013E0374806
:1033C00090F800013549487101203D4910310860ED
:1033D00009E0324890F828013049487101203E49FF
:1033E000086000E000BF00BF3A48407800F00100EC
:1033F0003849097801F00101884202D0012003F028
:1034000049FB0120354981F8BA0127490881AEE21C
:103410001F2C0ED12148C078FF280AD002202C4949
:1034200008720121002002F005FE01201E490881DA
:103430009DE294BB1A488078012851D1FFF7BEFD68
:103440001648807800B3FFF7A5FD01201C49091D2F
:10345000086000201149887008464078012806D18C
:103460000846807888710846007A487108E00B4861
:1034700080780A4981F8A800084690F8B0004871A1
:103480000120164981F8BA01FF200449C87001F0F3
:1034900077FB01200449088169E221E0280000202F
:1034A000CC020020840242426803002053575F434D
:1034B000565F4F5554505554203D20310D0A0000A1
:1034C0009C024042003C01401000002011000020FE
:1034D00078030020C0010020A4824042AE410020B9
:1034E000022C33D1F948807801282FD1FFF766FDEF
:1034F000F7488078022820D0FFF74CFD0120F549DD
:1035000008600220F249887008464078012807D1F7
:10351000084680788871084690F85800487108E09D
:10352000EB488078EA4981F8A800084690F8000145
:1035300048710120E84981F8BA01FF20E449C870C8
:1035400001F01EFB0120E549088110E2012C33D176
:10355000DE48807801282FD1FFF730FDDC488078E5
:10356000012820D0FFF716FD0120DA49091D086067
:10357000D749887008464078012807D108468078E6
:103580008871084690F83000487108E0D04880788B
:10359000CF4981F8A800084690F8D800487101206A
:1035A000CD4981F8BA01FF20C949C87001F0E8FA95
:1035B0000120CA490881DAE1032C33D1C34880785D
:1035C00001282FD1FFF7FAFCC1488078032820D0CA
:1035D000FFF7E0FC0120C24908600320BC49887065
:1035E00008464078012807D1084680788871084647
:1035F00090F88000487108E0B5488078B44981F8B7
:10360000A800084690F8280148710120B24981F8C5
:10361000BA01FF20AE49C87001F0B2FA0120AF49EB
:103620000881A4E1222C4AD1A948807838B1A84861
:103630008078012803D0A6488078022885D1FFF73A
:10364000BDFCA348C07801281CD00120A549086012
:103650009F4890F87301022803D101209C4981F80A
:10366000730101209A49C870002102F0E3FC012097
:10367000974981F870010021954880F8711180F810
:10368000721119E0924890F8730101280AD10020C4
:103690008F4981F87301012005F098FE02208C49C2
:1036A00081F87301FF208A49C870002081F87001F9
:1036B0000021874880F8721101F062FA57E1232C4B
:1036C00040D1FFF77BFC8248C078F0B101208549EA
:1036D000091F08607E4890F87301022803D1012079
:1036E0007B4981F8730100207949C87000210120CD
:1036F00002F0A0FC0120764981F870010021744895
:1037000080F8711180F8721119E0714890F8730116
:1037100001280AD100206E4981F87301012005F0CB
:1037200055FE02206A4981F87301FF206849C8707C
:10373000002081F870010021654880F8721101F0C5
:103740001FFA14E1212C49D161488078012803D067
:103750005F4880780228B1D1FFF730FC5C48C07820
:1037600002281ED001205F490C310860584890F8AB
:103770007301022803D10120554981F87301022009
:103780005349C8700021012002F054FC0120504927
:1037900081F8700100214E4880F8711180F8721193
:1037A00019E04B4890F8730101280AD100204849DC
:1037B00081F87301012005F009FE0220444981F8D7
:1037C0007301FF204249C870002081F87001002178
:1037D0003F4880F8721101F0D3F9C8E0202C45D1A0
:1037E0003B488078022840D1FFF7E8FB3848C07892
:1037F00003281ED001203B4924310860344890F84A
:103800007301022803D10120314981F8730103209B
:103810002F49C8700021012002F00CFC01202C4926
:1038200081F8700100212A4880F8711180F8721126
:1038300019E0274890F8730101280AD10020244993
:1038400081F87301012005F0C1FD0220204981F8B3
:103850007301FF201E49C870002081F8700100210B
:103860001B4880F8721101F08BF980E0132C03D112
:10387000002002F071FC7AE01D2C03D1012002F03F
:103880006BFC74E0172C03D1022002F065FC6EE0A3
:10389000112C03D1032002F05FFC68E01C2C03D143
:1038A000042002F059FC62E0162C03D1052002F03E
:1038B00053FC5CE0102C03D1062002F04DFC56E0D6
:1038C0001B2C11D1072002F047FC50E0CC02002055
:1038D00028000020AC024042AE41002068030020D6
:1038E000A48240428C824142152C03D1082002F070
:1038F00033FC3CE00F2C03D1092002F02DFC36E014
:10390000072C03D10B2002F027FC30E01E2C03D142
:103910000C2002F021FC2AE0192C08D1154890F85F
:10392000720120BB0121134880F872111FE00D2C99
:103930001DD1FFF743FBFF200E49C87001F020F9AD
:1039400000200C4981F8700100210A4880F87211AA
:1039500090F8730101280AD10020064981F873010B
:10396000012005F033FD0220024981F8730100BFF8
:10397000FFF7B5BB2800002000BFFEE71FB5C82237
:10398000FE490020FDF71AF9FC48007805287DD093
:103990000020FB4908700120487003F07BF80120EB
:1039A00006F008FEF748007A40F00B00F54908726F
:1039B000084690F8300040F00B0081F830000846CF
:1039C00090F8580040F00B0081F85800084690F835
:1039D000800040F00B0081F88000084690F8B000AD
:1039E00040F01A0081F8B000084690F8D80040F086
:1039F0001A0081F8D800084690F8000140F01A003B
:103A000081F80001084690F8280140F01A0081F87A
:103A1000280101200870DA48407800F00100487061
:103A20000020887181F8A800FF2088700846007A7D
:103A3000487101200522002300901846FDF772FA14
:103A400001200090CF480078024600230390102008
:103A5000FDF768FA01200090CA484078024600232A
:103A600003901120FDF75EFA01200090C54880798F
:103A70000246002303901220FDF754FA0120009023
:103A8000C04890F8A8000246002300E03EE2039000
:103A90001320FDF747FA01200090BA48007A024649
:103AA000002303901420FDF73DFA01200090B54853
:103AB000807A0246002303901520FDF733FA012097
:103AC0000090B048407A0246002303901620FDF78C
:103AD00029FA0820AB4910310090D1E902010246D1
:103AE0000B46CDE902011720FDF71CFA0820A54975
:103AF0000090D1E9040102460B46CDE902011F20E6
:103B0000FDF710FA012000909E4890F83000024620
:103B1000002303902720FDF705FA01200090994823
:103B200090F832000246002303902820FDF7FAF9AE
:103B300001200090934890F8310002460023039042
:103B40002920FDF7EFF9012000908E4890F833000E
:103B50000246002303902A20FDF7E4F90820894952
:103B600038310090D1E9020102460B46CDE902014D
:103B70002B20FDF7D7F9082082490090D1E90E01EA
:103B800002460B46CDE902013320FDF7CBF90820B0
:103B90007C4938310090D1E9040102460B46CDE959
:103BA00002013B20FDF7BEF901200090754890F816
:103BB00058000246002303904320FDF7B3F901208B
:103BC0000090704890F85A00024600230390442069
:103BD000FDF7A8F9012000906A4890F859000246C4
:103BE000002303904520FDF79DF9012000906548D2
:103BF00090F85B000246002303904620FDF792F9FF
:103C0000012000905F4890F85C000246002303907A
:103C10004720FDF787F908205A4960310090D1E923
:103C2000020102460B46CDE902014820FDF77AF970
:103C3000082054490090D1E9180102460B46CDE90D
:103C400002015020FDF76EF908204E4960310090C6
:103C5000D1E9040102460B46CDE902015820FDF7E7
:103C600061F90820474960310090D1E90601024618
:103C70000B46CDE902016020FDF754F901200090C8
:103C8000404890F880000246002303906820FDF72A
:103C900049F9012000903B4890F88100024600233A
:103CA00003906920FDF73EF90820364980310090E5
:103CB000D1E9020102460B46CDE902016A20FDF777
:103CC00031F9012000902F4890F8B00002460023FF
:103CD00003907220FDF726F901200090294890F802
:103CE000B2000246002303907320FDF71BF9012068
:103CF0000090244890F8B1000246002303907420FD
:103D0000FDF710F9082000901E48B03041690069A5
:103D100002460B46CDE902017520FDF703F90820A4
:103D200000901848B030C168806802460B46CDE963
:103D300002017D20FDF7F6F801200090114890F86F
:103D4000D8000246002303908520FDF7EBF8012000
:103D500000900C4890F8DA00024600230390862079
:103D6000FDF7E0F801200090064890F8D9000246DF
:103D7000002303908720FDF7D5F805E021050020FA
:103D8000C00100202800002001200090FE4890F88B
:103D9000DB000246002303908820FDF7C3F80820CB
:103DA000F949E0310090D1E9020102460B46CDE924
:103DB00002018920FDF7B6F808200090F248D830BB
:103DC000C168806802460B46CDE902019120FDF7EB
:103DD000A9F80820EC49E0310090D1E9040102463D
:103DE0000B46CDE902019920FDF79CF801200090D7
:103DF000E54890F80001024600230390A120FDF75A
:103E000091F801200090E04890F80201024600235A
:103E10000390A220FDF786F801200090DA4890F880
:103E20000101024600230390A320FDF77BF8012047
:103E30000090D54890F80301024600230390A42087
:103E4000FDF770F801200090CF4890F80401024679
:103E500000230390A520FDF765F808200090CB48CB
:103E60004169006902460B46CDE90201A620FDF733
:103E700059F808200090C548C168806802460B4682
:103E8000CDE90201AE20FDF74DF808200090BF48B3
:103E9000C169806902460B46CDE90201B620FDF7F3
:103EA00041F808200090B948416A006A02460B4672
:103EB000CDE90201BE20FDF735F801200090B2489F
:103EC00090F82801024600230390C620FDF72AF847
:103ED00001200090AC4890F829010246002303908D
:103EE000C720FDF71FF80820A84928310090D1E924
:103EF000020102460B46CDE90201C820FDF712F887
:103F0000C822A3490020FCF794FE75E2012110208D
:103F1000FCF7C8FE9C49087001211120FCF7C2FE85
:103F20009949487001211220FCF7BCFE964988711E
:103F300001211320FCF7B6FE934981F8A800012166
:103F40001420FCF7AFFE9049087201211520FCF700
:103F5000A9FEC1B28C48817201211620FCF7A2FE95
:103F6000C1B28948417208211720FCF79BFE864A9E
:103F7000C2E9060108211F20FCF794FE824AC2E92B
:103F8000040101212720FCF78DFE7F4981F83000D4
:103F900001212820FCF786FEC1B27B4880F8321050
:103FA00001212920FCF77EFEC1B2774880F831104C
:103FB00001212A20FCF776FEC1B2734880F8331045
:103FC00008212B20FCF76EFE6F4AC2E91001082180
:103FD0003320FCF767FE6C4AC2E90E0108213B2042
:103FE000FCF760FE684AC2E9120101214320FCF798
:103FF00059FE654981F8580001214420FCF752FE22
:10400000C1B2614880F85A1001214520FCF74AFEF0
:10401000C1B25D4880F8591001214620FCF742FEEC
:10402000C1B2594880F85B1001214720FCF73AFEE5
:10403000C1B2554880F85C1008214820FCF732FED8
:10404000514AC2E91A0108215020FCF72BFE4E4AC2
:10405000C2E9180108215820FCF724FE4A4AC2E9A7
:104060001C0108216020FCF71DFE474AC2E91E0121
:1040700001216820FCF716FE434981F880000121E8
:104080006920FCF70FFEC1B23F4880F8811008217B
:104090006A20FCF707FE3C4A8032C2E90201012196
:1040A0007220FCF7FFFD384981F8B0000121732030
:1040B000FCF7F8FDC1B2344880F8B2100121742039
:1040C000FCF7F0FDC1B2304880F8B110082175202E
:1040D000FCF7E8FD2D4A503AC2E9040108217D2091
:1040E000FCF7E0FD294A503AC2E90201012185208E
:1040F000FCF7D8FD244981F8D80001218620FCF77F
:10410000D1FDC1B2204880F8DA1001218720FCF7E8
:10411000C9FDC1B21C4880F8D91001218820FCF7E4
:10412000C1FDC1B2184880F8DB1008218920FCF7D6
:10413000B9FD164A283AC2E9040108219120FCF78A
:10414000B1FD124A283AC2E9020108219920FCF780
:10415000A9FD0E4A283AC2E906010121A120FCF777
:10416000A1FD094981F800010121A220FCF79AFD77
:10417000C1B2054880F802110121A320FCF792FD8D
:10418000C1B2014806E000002800002028010020FC
:104190002105002080F801110121A420FCF782FDF7
:1041A000C1B2964880F803110121A520FCF77AFDE1
:1041B000C1B2924880F804110821A620FCF772FDD4
:1041C0008F4AC2E904010821AE20FCF76BFD8C4A3E
:1041D000C2E902010821B620FCF764FD884AC2E961
:1041E00006010821BE20FCF75DFD854AC2E90801F1
:1041F0000121C620FCF756FD804981F828010121E4
:10420000C720FCF74FFDC1B27C4880F82911082176
:10421000C820FCF747FD7A4A2832C2E90201794AF0
:1042200045237648183000F0F9F8774A00237348A0
:10423000103000F0F3F8734A45237048403000F026
:10424000EDF8714A00236D48383000F0E7F86F4A06
:1042500000236A48483000F0E1F86A4A452367487D
:10426000683000F0DBF8684A00236448603000F0F2
:10427000D5F8664A00236148703000F0CFF8644AF0
:1042800002235E48783000F0C9F85F4A00235C489A
:10429000783800F0C3F85B4A45235948403800F0AD
:1042A000BDF85C4A00235648483800F0B7F8554A34
:1042B00045235348183800F0B1F8564A00235048B7
:1042C000203800F0ABF8514A00234D48103800F078
:1042D000A5F84C4A45234A48103000F09FF84D4A53
:1042E00000234748083000F099F8484A0023444822
:1042F000183000F093F8464A02234148203000F07D
:104300008DF8444A00233E48303000F087F8002002
:1043100041490870394840784870012002F0BAFBE2
:10432000FF20364988700846407870B3012862D172
:104330000846807930B101280CD0022813D0032818
:1043400024D119E02D48007A2C494871012006F04B
:1043500031F91CE0294890F83000284948710420C0
:1043600006F028F913E0254890F8580023494871D1
:10437000072006F01FF90AE0204890F880001F4946
:1043800048710A2006F016F901E002E000BF00BF04
:1043900031E01A4890F8A80030B101280DD0022869
:1043A00014D0032824D11AE0144890F8B00013491F
:1043B0004871012006F0FEF81BE0104890F8D80084
:1043C0000E494871042006F0F5F812E00B4890F809
:1043D00000010A494871072006F0ECF809E0074897
:1043E00090F82801054948710A2006F0E3F800E03A
:1043F00000BF00BF00BF00BF1FBD0000280000209D
:104400002801002000B864D980D1F00880C3C90118
:104410000098D0580048E801C001002010B5D0E94C
:104420000041141B73EB010102D2002404604460BC
:1044300010BD00001FB5FE4800894EF6602188427D
:104440007EDB01200522002300901846FCF76AFD60
:1044500001200090F74800780246002303901020C6
:10446000FCF760FD01200090F248407802460023EE
:1044700003901120FCF756FD01200090ED48807953
:104480000246002303901220FCF74CFD012000900F
:10449000E84890F8A8000246002303901320FCF798
:1044A00041FD01200090E348007A0246002303907A
:1044B0001420FCF737FD01200090DE48807A024688
:1044C000002303901520FCF72DFD01200090D94812
:1044D000407A0246002303901620FCF723FD0820B3
:1044E000D44910310090D1E9020102460B46CDE9D2
:1044F00002011720FCF716FD0820CE490090D1E9F3
:10450000040102460B46CDE902011F20FCF70AFD1B
:1045100001200090C74890F8300002460023039025
:104520002720FCF7FFFC01200090C24890F83200E1
:104530000246002303902820FCF7F4FC012000E051
:10454000EEE10090BB4890F8310002460023039052
:104550002920FCF7E7FC01200090B64890F83300D2
:104560000246002303902A20FCF7DCFC0820B14916
:1045700038310090D1E9020102460B46CDE9020133
:104580002B20FCF7CFFC0820AA490090D1E90E01AE
:1045900002460B46CDE902013320FCF7C3FC08209C
:1045A000A44938310090D1E9040102460B46CDE917
:1045B00002013B20FCF7B6FC012000909D4890F8DA
:1045C00058000246002303904320FCF7ABFC012077
:1045D0000090984890F85A00024600230390442027
:1045E000FCF7A0FC01200090924890F85900024688
:1045F000002303904520FCF795FC012000908D4896
:1046000090F85B000246002303904620FCF78AFCEA
:1046100001200090874890F85C0002460023039038
:104620004720FCF77FFC0820824960310090D1E9E7
:10463000020102460B46CDE902014820FCF772FC5C
:1046400008207C490090D1E9180102460B46CDE9CB
:1046500002015020FCF766FC08207649603100908A
:10466000D1E9040102460B46CDE902015820FCF7CE
:1046700059FC08206F4960310090D1E906010246DB
:104680000B46CDE902016020FCF74CFC01200090B4
:10469000684890F880000246002303906820FCF7E9
:1046A00041FC01200090634890F8810002460023FD
:1046B00003906920FCF736FC08205E4980310090A9
:1046C000D1E9020102460B46CDE902016A20FCF75E
:1046D00029FC01200090574890F8B00002460023C2
:1046E00003907220FCF71EFC01200090514890F8C6
:1046F000B2000246002303907320FCF713FC012054
:1047000000904C4890F8B1000246002303907420BA
:10471000FCF708FC08204749B8310090D1E90201B4
:1047200002460B46CDE902017520FCF7FBFB082091
:104730004049B0310090D1E9020102460B46CDE973
:1047400002017D20FCF7EEFB01200090394890F833
:10475000D8000246002303908520FCF7E3FB0120EC
:104760000090344890F8DA00024600230390862037
:10477000FCF7D8FB012000902E4890F8D9000246A3
:10478000002303908720FCF7CDFB012000902948EF
:1047900090F8DB000246002303908820FCF7C2FB60
:1047A00008202449E0310090D1E9020102460B467D
:1047B000CDE902018920FCF7B5FB08201D49D8315D
:1047C0000090D1E9020102460B46CDE90201912099
:1047D000FCF7A8FB08201749E0310090D1E904015B
:1047E00002460B46CDE902019920FCF79BFB012014
:1047F0000090104890F80001024600230390A12089
:10480000FCF790FB012000900A4890F80201024654
:1048100000230390A220FCF785FB012000900548AF
:1048200090F80101024600230390A32004E0000059
:104830006803002028000020FCF774FB0120009092
:10484000384890F80301024600230390A420FCF7A7
:1048500069FB01200090334890F8040102460023D0
:104860000390A520FCF75EFB08202F490090D1E9BA
:10487000020102460B46CDE90201A620FCF752FBDD
:104880000820294908390090D1E9020102460B4667
:10489000CDE90201AE20FCF745FB0820224900903B
:1048A000D1E9040102460B46CDE90201B620FCF72E
:1048B00039FB08201C490090D1E9060102460B464D
:1048C000CDE90201BE20FCF72DFB01200090154828
:1048D00090F82801024600230390C620FCF722FB33
:1048E000012000900F4890F8290102460023039010
:1048F000C720FCF717FB08200B4920310090D1E9B5
:10490000020102460B46CDE90201C820FCF70AFB72
:10491000C82206490020FCF78CF9002004490881D0
:104920001FBD0000280000203001002021050020CC
:104930006803002010B504460C4951F824104A00C1
:104940000B4951F82400002105F0DAFF094951F81C
:1049500024200749083951F82400002105F0D0FF30
:10496000012103480830015510BD0000BCAE00080D
:10497000F8020020CCAE00087047000070B500219E
:1049800000230F22C4781CB3174C246804F4E0649D
:10499000C4F5E064C4F30721C1F10404E3B20A41A1
:1049A00044789C40E1B28478144021430C07210EE6
:1049B0000E4C05786155047804F01F050124AC40C5
:1049C00005786D11AD0005F1E025C5F8004109E05D
:1049D000047804F01F050124AC40054D06787611DB
:1049E00045F8264070BD00000CED00E000E400E05A
:1049F00080E100E002490143024A11607047000073
:104A00000000FA050CED00E010B5002807DA0A07EF
:104A1000140E054A00F00F031B1FD45403E00A07CD
:104A2000130E024A135410BD18ED00E000E400E03C
:104A30002DE9F047064614461D46DDF82090B9F1F1
:104A4000010F7AD1012E29D149480078012811D1CE
:104A50001922002320462946FBF7BCFB07464FF4EA
:104A60007A720023FBF7B6FB824651460120FBF722
:104A7000C5FF3DE01922002320462946FBF7AAFB8B
:104A800007464FF47A720023FBF7A4FBD0F1000A2B
:104A900051464FF00100FBF7B1FF29E046BB344817
:104AA0000078012811D14FF47A720023204629465C
:104AB000FBF790FB074608220023FBF78BFB82469F
:104AC00051460220FBF79AFF12E04FF47A7200235E
:104AD00020462946FBF77EFB074608220023FBF70A
:104AE00079FBD0F1000A51464FF00200FBF786FF38
:104AF000002184EA01006940084313D000201D49C9
:104B000008601D49C1F8A0021C48006820B90120B6
:104B100018491031086029E000201649103108605A
:104B200024E00AE00120134908601349C1F8A002FB
:104B3000002010491031086018E0B9F1000F15D1BC
:104B4000012E04D100210120FBF758FF04E01EB91B
:104B500000210220FBF752FF0120064908600649A8
:104B6000C1F8A0020020034910310860BDE8F087B9
:104B700028000020848240420080404204024042DB
:104B800010B5504800794F49C97888424ED04D48F9
:104B9000007930B1012813D0022821D003283FD159
:104BA0002EE049A1494804F091FF47A147487330DE
:104BB00004F08CFF44A14548E63004F087FF30E064
:104BC00041A14248163804F081FF3FA13F484B30D5
:104BD00004F07CFF3CA13D48DC3004F077FF20E08E
:104BE00039A13A48163004F071FF37A137489B309D
:104BF00004F06CFF34A13548F03004F067FF10E09A
:104C000031A132482C3004F061FF2FA12F48C3306E
:104C100004F05CFF2CA12D48FA3004F057FF00E0AF
:104C200000BF00BF2748C078264908712548C078D2
:104C300030B1012813D0022821D003283FD12EE023
:104C400021A1224804F042FF1FA12048733004F044
:104C50003DFF1DA11D48E63004F038FF30E01AA1E9
:104C60001A48163804F032FF17A118484B3004F0E8
:104C70002DFF15A11548DC3004F028FF20E012A11B
:104C80001248163004F022FF0FA110489B3004F0A8
:104C90001DFF0DA10D48F03004F018FF10E00AA12F
:104CA0000A482C3004F012FF07A10848C33004F072
:104CB0000DFF05A10548FA3004F008FF00E000BF31
:104CC00000BF10BD28000020000000006942002045
:104CD0002DE9FF4F87B00D4614461F46DDE9176BDF
:104CE000DDE9158ADDF85090079809287ED2DFE8C3
:104CF00000F07D052E475E879EC7EB0004EB0900A0
:104D000083B2E81982B2214628460096FDF718FCC6
:104D10005046FBF790FA08EBD871491000FB117070
:104D200005EB500080B2CDE90408A9EB0800CDE9FD
:104D3000026BCDE9008A069000EBD07004EB6000B6
:104D400081B24B463A460498FEF776F8E5E004EB6C
:104D5000090083B2E81982B2214628460096FDF781
:104D6000EFFB04F1140291B205F1140290B24B462C
:104D70003A46CDE9026BCDE9008AFEF75DF8CCE05A
:104D800004EB090083B2E81982B221462846009656
:104D9000FDF7D6FB04F1140081B24B463A46284693
:104DA000CDE9026BCDE9008AFEF746F8B5E044F2A2
:104DB0002820009004EB090083B2E81982B2214652
:104DC0002846FDF7BDFB04EB09000A3883B2E81959
:104DD000283882B204F10A0081B228460096FDF715
:104DE000AFFB04F1140081B24B4600E094E03A4678
:104DF0002846CDE9026BCDE9008AFEF71DF88CE06C
:104E000004EB090083B2E81982B2214628460096D5
:104E1000FDF796FB04F1140081B24B463A46284652
:104E2000CDE9026BCDE9008AFEF706F875E004EBE8
:104E3000090083B2E81982B2214628460096FDF7A0
:104E40007FFB002037A11022CDE9011600920390CC
:104E500004F1120291B26A1D90B24B463A46FDF738
:104E6000EBFF04F10A0291B205F13C0290B24B460D
:104E70003A46CDE9026BCDE9008AFDF7DDFF4CE053
:104E800004EB090083B2E81982B221462846009655
:104E9000FDF756FB5046FBF7CEF908EBD8714910E9
:104EA00000FB117005EB500080B2CDE9050804F15C
:104EB0000A0081B24B463A46CDE9026BCDE9008A41
:104EC0000598FDF7B9FF28E004EB090083B2E81963
:104ED00082B2214628460096FDF732FB13A010212E
:104EE00004F11202CDE9026BCDE9001091B26A1D06
:104EF00090B24B463A46FDF79FFF04F10A0291B289
:104F000005F1440290B24B463A46CDE9026BCDE939
:104F1000008AFDF791FF00E000BF00BF0BB0BDE8C5
:104F2000F08F000054595045207C000053544154E8
:104F300045207C00704700000021082836D100BFC2
:104F400031E0374A525C022A2BD10023344A5354B1
:104F5000521E127801238B401A4072B1314A32F846
:104F60001120314B53F821301A60304A32F81120A9
:104F70002F4B53F821301A6013E0294A521E537AFE
:104F800001228A40134063B14FF08042928942F07F
:104F900001024FF080439A811A46128842F00102C2
:104FA0001A804A1CD1B20829CBDB31E008282FDA5D
:104FB0001B4A125C022A2BD10023194A1354521E99
:104FC0001278012383401A4072B1164A32F8102039
:104FD000154B53F820301A60144A32F81020144B45
:104FE00053F820301A6013E00D4A521E527A012302
:104FF00083401A4062B14FF08042928942F0010230
:105000004FF080439A811A46128842F001021A80BA
:10501000084A1268084BDA600022064B1A60704793
:10502000CD020020802900202402002090290020A9
:10503000C4010020080300206803002038B504469E
:105040000025082C4BD100BF46E04C48405D0028AD
:1050500040D1022149484155401E00780121A94014
:105060000840D8B1464850F825000068454921F865
:1050700015000020424951F825100860424850F8B8
:1050800025000068414921F81500414850F82500E5
:1050900000683D4951F8251008601BE03748401E64
:1050A000417A0120A8400140A1B14FF080408089A1
:1050B00020F001004FF0804188810846008820F0F0
:1050C00001000880002033490090487800221346F0
:1050D000FFF7AEFC681CC5B2082DB6DB45E0082C16
:1050E00043DA2648005D18BB022124480155401EC2
:1050F00000780121A1400840D8B1214850F824008F
:105100000068204921F8140000201D4951F824109E
:1051100008601D4850F8240000681C4921F814005C
:105120001B4850F824000068174951F82410086003
:105130001BE01248401E407A0121A1400840A0B166
:105140004FF08040808920F001004FF0804188813D
:105150000846008820F00100088000200D490090DA
:10516000487800221346FFF763FC0B48C0680B49E0
:10517000086000200849C86038BD0000CD0200204A
:105180002402002080290020C40100209029002052
:10519000E40100202800002068030020080300200C
:1051A0000021082856D100BF51E0574A1278012348
:1051B0008B401A4092B30023534A521C5354534A13
:1051C00052F82120D2689288514B53F821301A604E
:1051D0004E4A52F82120D268D2884E4B53F82130E3
:1051E0001A804A4A52F82120D26812894A4B53F851
:1051F00021301A60494A52F82120128842F00102F7
:10520000464B53F821301A80454A52F82120128823
:1052100042F00102424B53F821301A803A4A527A46
:1052200001238B401A4082B10023374A521C535449
:105230004FF08042928942F001024FF080439A8100
:105240001A46128842F001021A804A1CD1B208297B
:10525000ABDB51E008284FDA2B4A12780123834058
:105260001A4092B30023284A521C1354274A52F87A
:105270002020D2689288264B53F820301A60234AA7
:1052800052F82020D268D288224B53F820301A805E
:105290001E4A52F82020D26812891F4B53F8203042
:1052A0001A601E4A52F82020128842F001021B4B5D
:1052B00053F820301A801A4A52F82020128842F0FF
:1052C0000102174B53F820301A800F4A527A0123FB
:1052D00083401A4082B100230B4A521C13544FF0F2
:1052E0008042928942F001024FF080439A811A462F
:1052F000128842F001021A8001220A4BDA60002271
:10530000094B1A6070470000CC02002010030020F7
:10531000E4010020040200202402002044020020B6
:1053200064020020680300201400002038B5044601
:105330000025082C7ED100BF7AE00121804841552C
:10534000401E01780120A8400140002952D07D482C
:1053500050F82500008820F001007A4951F8251006
:105360000880794850F82500008820F0010076492F
:1053700051F825100880002074494855744951F8A7
:1053800025100860734850F825000068724951F8EC
:1053900025100968401A052808D96E4850F82500DC
:1053A0000068801E6C4951F8251008602720694963
:1053B00051F8251008602920684951F82510088007
:1053C0000020634951F8251008605E4850F8250018
:1053D000008840F001005B4951F8251008805A48C8
:1053E00050F82500008840F00100574951F8251079
:1053F00008801BE05248401E417A0120A84001402D
:10540000A1B14FF08040808920F001004FF0804131
:1054100088810846008820F001000880002050495B
:105420000090487800221346FFF702FB681CC5B2C3
:10543000082D00E001E080DB79E0082C77DA01211B
:105440003F480155401E0078A1400840002852D036
:105450003C4850F82400008820F00100394951F8F8
:1054600024100880384850F82400008820F00100FB
:10547000354951F824100880002034490855344932
:1054800051F824100860334850F82400006832496D
:1054900051F824100968401A052808D92D4850F8F9
:1054A00024000068801E2C4951F824100860272031
:1054B000284951F8241008602920284951F824105F
:1054C00008800020224951F8241008601D4850F837
:1054D0002400008840F001001A4951F82410088087
:1054E000194850F82400008840F00100164951F88E
:1054F000241008801BE01248401E407A0121A14080
:105500000840A0B14FF08040808920F001004FF0AA
:10551000804188810846008820F001000880002032
:105520000F490090487800221346FFF781FA0020C7
:105530000C4908600C49C8600C49086038BD00007F
:10554000CD0200204402002064020020C40200209A
:1055500024020020E4010020C401002004020020F5
:10556000280000209C024042680300201400002014
:105570002DE9F0472DED028B04464FF000099FED19
:105580004C0AB0EE408AE06818B1E168002005F0EE
:1055900091F948480078401C00EB80004100002051
:1055A00005F09AF9E060E06820B90520BDEC028BB7
:1055B000BDE8F0873F484078012829D13D48806BFD
:1055C00020603C493831D1E904714FF47A720023EC
:1055D0003846FAF7FFFD0546FAF7D3FF08EE100A42
:1055E00034493831D1E902211046FAF7CAFF00EEFA
:1055F000100A20EE080ADFED300A20EE200ADFED67
:105600002F0A80EE201ABCEEC10A10EE109A29E093
:105610002848D0F8E00020602649E031D1E9045163
:105620004FF47A7200232846FAF7D4FD0746FAF7BA
:10563000A8FF08EE100A1F49E031D1E90221104607
:10564000FAF79FFF00EE100A20EE080ADFED1A0AB3
:1056500020EE200ADFED190A80EE201ABCEEC10A06
:1056600010EE109A206808B901209FE7B5EEC08AB5
:10567000F1EE10FA01D1022098E7B9F1000F01D143
:10568000032093E7E068DFED0E0A68EE200AB0EE33
:10569000600A00EE909AF8EE600A00F0D1F84FF63A
:1056A000FF70E16808600120A060606000207DE775
:1056B000000000002800002000504347286B6E4E79
:1056C0000000C8422DE9F0412DED028B0446002078
:1056D00008EE100A9FED540AF0EE408AE06818B117
:1056E000E168002005F0E6F85048007800EB800003
:1056F0004100002005F0F0F8E060E06820B90520E6
:10570000BDEC028BBDE8F08148484078012803D108
:1057100046480069206003E04448D0F8B8002060A3
:10572000206808B90120EBE79FED410AF0EE408ABE
:105730004CF2503008EE100AE068F8EE480AB0EE7D
:10574000680A00F07DF839484078012820D13749AF
:105750001031D1E902514FF47A7200232846FAF74A
:1057600039FD0746FAF70DFF00EE100A9FED311ADA
:10577000C8EE810A9FED301AC0EE811A20EE210A90
:10578000DFED2C0A80EE201A2C4880ED001A1FE075
:105790002649B831D1E902514FF47A7200232846E4
:1057A000FAF718FD0746FAF7ECFE00EE100A9FED37
:1057B000211AC8EE810A9FED201AC0EE811A20EE50
:1057C000210ADFED1C0A80EE201A1C4880ED001A29
:1057D0001A4890ED000ABCEEC00A10EE100AE1680B
:1057E000086012480078022812D1E16801F10A002D
:1057F000F8EE480AB0EE680A00F022F80F4890ED83
:10580000000ABCEEC00A10EE100AE168C1F80A00F6
:10581000E068006808B9042072E704480078A060D6
:105820000120606000206BE70000000028000020DD
:105830008096984A00007A440000C8423003002055
:105840002DE9F0412DED088BB0EE409AF0EE608A24
:105850000446002600279FED930AB0EE408A0025FB
:10586000A846DFED910A89EE200ADFED900A80EE6E
:10587000801AB0EE418A9FED8E0AB4EEC08AF1EE36
:1058800010FA05D8BCEEC80A10EE105A012686E0C0
:1058900018EE100AFAF7D9FE41EC1B0BB0EE4B0ADA
:1058A000F0EE6B0A04F026F9B0EE40AAF0EE60AA22
:1058B00051EC1A0BFAF7B0FE054600EE105AB8EE9E
:1058C000400AC8EE000ABCEEE00A10EE100A86B2EA
:1058D0009FED780AB4EEC08AF1EE10FA0ADD9FED72
:1058E000760AC8EE000ABCEEE00A10EE108A4EF608
:1058F00060273DE09FED710AB4EEC08AF1EE10FA28
:105900000ADD9FED6F0AC8EE000ABCEEE00A10EE59
:10591000108A42F210772BE09FED6A0AB4EEC08A3B
:10592000F1EE10FA0ADD9FED680AC8EE000ABCEE3F
:10593000E00A10EE108A4FF47A7719E09FED630ABF
:10594000B4EEC08AF1EE10FA09DD9FED570AC8EEF9
:10595000000ABCEEE00A10EE108A642708E0B2EEFE
:10596000040AC8EE000ABCEEE00A10EE108A0A270C
:1059700005FB06F000EE100AB8EE400A78EE400A89
:1059800008FB07F000EE100AB8EE400A38EE400AB5
:10599000F4EEC00AF1EE10FA01DD45463E46681EFF
:1059A000A080701EE0809FED4A0AF4EEC08AF1EEFE
:1059B00010FA03DBA088401C20816DE0F5EEC08A60
:1059C000F1EE10FA02D10020208165E09FED400A3F
:1059D000C0EE280AA088401C00EE100AB8EEC00AEB
:1059E000F4EEC00AF1EE10FA37DDA08800EE100ADE
:1059F000B8EE400AB0EE408ADFED350A80EEA80A24
:105A0000F7EE000A30EE600ABCEEC00A10EE100A93
:105A1000A080E08800EE100AB8EE400A60EE080AA6
:105A2000A08800EE100AB8EE400A80EE801AB0EEB0
:105A3000418AB7EE000AB4EEC08AF1EE10FA03D242
:105A4000B7EE000AB0EE408AB7EE000A38EE400A20
:105A5000BCEEC00A10EE100AE080A088401C00EEE8
:105A6000100AB8EEC00A20EE280ADFED190A80EE0F
:105A7000201AB0EE418A18EE100AFAF7E6FD41EC62
:105A80001B0B9FED140B53EC102BFAF7F2FB41ECC0
:105A90001A0BFAF7C1FD20810020BDEC088BBDE890
:105AA000F0810000000000000000C842A037A04CB8
:105AB00000FF7F47643F1C4E00606A4706FF794C39
:105AC00000401C4638FFC74A00007A4460FF1F4967
:105AD00000504347000000000000E03F2DE9F04780
